:040000000128FE2FA6
:1000660020001C1508007A30210099009A01980199
:1000760008003620A4204B2065204320702008006D
:10008600013021009D0090309E009B019C010800DC
:1000960020009C011B309B009A0191103320080020
:1000A600F0002000111E5428700823009A00080052
:1000B600013400340A34003464340034E834033440
:1000C60010342734BC30250093009501803094000D
:1000D60096010D309100920108004A3023009F00DE
:1000E60080309D0026309E00A0309B0001309C0091
:1000F600080001340034083400344034003400343D
:1001060002340034103400348034F100F0013A3007
:1001160071020318942830307102031C9428F001F0
:10012600F00A700C080020003F08A1003E08A0005D
:100136004108A3004008A2004230AB234230B4205D
:10014600080022008C010F3021008C0004302300AF
:100156008C0024008C0121009517033022009D009D
:100166000800F200720886008701010803190800DA
:10017600720886008701010853200130F1007108DA
:10018600F207B528F300F201731CCD287008F100C0
:100196007108F2070310F00D0310F30C7308031D2A
:1001A600C7287208080030343134323433343434DA
:1001B6003534363437343834393461346234633460
:1001C6006434653466340034303431343234333494
:1001D60034343534363437343834393441344234AF
:1001E600433444344534463400347808F000790802
:1001F600F100F2018E30FB007B08F300F4010D22C2
:100206007008F8007108F9007208FA000800F30097
:100216007308F200F20DF20D21001D0872068339F3
:1002260072069D001D149D149D1817291C08F100C7
:100236001B08F0000800F401F501701C262972085D
:10024600F4077308F53D0130F235F30D890B2729C4
:100256000130F136F00C890B2C2970087104031D4E
:1002660020297508F1007408F000080001340034F4
:1002760010340034003401340034103461346434F2
:1002860063342034763461346C34753465343A34EE
:1002960020342534643420346D3476340D340A34F5
:1002A6000034F201F30171087302031D5C29700822
:1002B600720203180800F401F501003075020830D7
:1002C60003197402031872290130F4070030F53D52
:1002D60000307502083003197402031C67290130C7
:1002E600F2070030F33D56297808790403199E2950
:1002F600FD01FD0AF91B89290130F835F90D890B35
:1003060080290130FC007C08FD077D2979087B02E5
:10031600031D8F2978087A02031C95297808FA02AA
:100326007908FB3B0130F936F80C890B9629013028
:10033600FD02031D89297B08F9007A08F8000800E8
:10034600F501F601700871040319D229F701F70ABD
:10035600F11BB7290130F035F10D890BAE290130BB
:10036600F4007408F707AB290130F535F60D890B53
:10037600B82971087302031DC22970087202031C92
:10038600C9297008F2027108F33B75140130F13681
:10039600F00C890BCA290130F702031DB72976082C
:1003A600F1007508F00008002000EA01EB013C208E
:1003B60002300A2171082000EB007008EA00413083
:1003C600BE008130BF006B08F9006A08F800F8200B
:1003D60078082000A3007908A4007A08A500CD308B
:1003E600A0004C30A1004030A200F82220002008D6
:1003F600B0002108B1002208B200712220003108A5
:10040600C1003008C00096207030F0001730F100AF
:100416005421DB2973080319152A72087104700424
:10042600031D262A0030F0000030F1000030F200F3
:1004360008000130F5007508F3070130F236F10CBB
:10044600F00C890B212AFE30720503193F2A1C2A5B
:100456000130F5007508F3070130F0070030031886
:100466000130F107003003180130F2070130F2368F
:10047600F10CF00C890B3A2AFF30720503194C2A4D
:100486002B2A0130F3020130F035F10DF20D890B04
:10049600472AF11B522A023073020318442A7318A2
:1004A6005A2AFF30F0057F30F105FF30F2050310C0
:1004B600F30C7308F500F601F7011030F535F60D6B
:1004C600F70D890B612A7508F0047608F1047708A0
:1004D600F204740803190800F21708002000300817
:1004E600B4003108B5003208B6000310350D360DDC
:1004F600B7003708BD003D08031D8A2A0030B30047
:100506000030B2000030B1000030B0000800300802
:10051600B4003108B5003208B6001730B636B50C4F
:10052600B40C890B912A3408B7003708B800B11704
:10053600FF30B005FF30B1050030B2053008B90014
:100546003108BA003208BB00BC018E30BD02BD1FA7
:10055600C82A3D08803A8F3E0318BA2A0030B300F5
:100566000030B2000030B1000030B00008000130A9
:10057600BC36BB0CBA0CB90C890BBB2A0130B400D3
:100586003408BD070319E12ABA2A18303D02031CB4
:10059600DE2A0030B3000030B2000030B100003077
:1005A600B00008000130B935BA0DBB0DBC0D890B82
:1005B600D62A0130BD023D08031DD52A3808031985
:1005C600EF2AB909BA09BB09BC09B90A0319BA0A5B
:1005D6000319BB0A0319BC0A3C08B3003B08B20066
:1005E6003A08B1003908B000080020002008A6002B
:1005F6002108A7002208A8000310270D280DA9002E
:100606002908AA002A08031D0F2B0030A00000307D
:10061600A1000030A20008002308A6002408A700B5
:100626002508A8000310270D280DA9002908AF00EA
:100636002F08031D252B0030A0000030A10000303C
:10064600A20008002F087B3EA6002608AA0720085D
:10065600A6002108A7002208A8001030A836A70C7B
:10066600A60C890B312B2608A9002908AF00230800
:10067600A6002408A7002508A8001030A836A70C55
:10068600A60C890B412B2608A9002908AF06803045
:10069600A6002608AF05A117A417FF30A305FF3053
:1006A600A4050030A5050030AB000030AC000030DA
:1006B600AD000730A6002608AE00201C682B2308D4
:1006C600AB072408AC3D2508AD3D0130A236A10C90
:1006D600A00C890B692B0130A335A40DA50D890B40
:1006E6006F2B0130AE02031D602B0930A6002608D1
:1006F600AE00201C842B2308AB072408AC3D25083C
:10070600AD3D0130A236A10CA00C890B852B013022
:10071600AD36AC0CAB0C890B8B2B0130AE02031D36
:100726007C2B2B08F0002C08F1002D08F2002A087B
:10073600A6002608F3002F08A7002708F4000D22BC
:1007460070082000A0007108A1007208A20008002D
:100756002000B9002230A4002408B200200021089D
:10076600A5002008A400A00A0319A10A24088400F1
:10077600250885000008A6002608B80038080319D1
:10078600F92F253038060319D42B3808A400390868
:1007960086008701240881000130A4002408B907D7
:1007A600B12BB601B701BA01BB01E42BBA15E02B98
:1007B6003A14E02BBB15E02B3A150130A0070030A8
:1007C600A13D20088400210885000008203A03196D
:1007D600DB2B033A0319DD2B0E3A0319D92B1D3AED
:1007E6000319DF2BF62BBA1DFC2BFB30BA05FF30A5
:1007F600BB05200884002108850000088820031C0A
:10080600322C2000B601B7010A30F0000030F100AA
:1008160020003708F3003608F2001E217108200078
:10082600B7007008B600200884002108850000087B
:10083600D03EA400FF3003180030A5002408B607F8
:100846002508B73D0130A0070030A13D20088400EF
:100856002108850000088820031C4A2C072C20004C
:10086600200884002108850012002A3A031D4A2C1C
:10087600320886008701403FB600413FB70002308C
:10088600A4002408B2070130A0070030A13D2000D3
:10089600200884002108850012002E3A031D912CA1
:1008A6003B170130A0070030A13D20088400210835
:1008B600850012002A3A031D702C32088600870133
:1008C6000108A4002408B5000230A4002408B207D9
:1008D6000130A0070030A13D242DB5012008840079
:1008E6002108850000088820031C242D20002008EC
:1008F6008400210885000008A4000A30A500250808
:10090600F0003508C52020002407D03EA6002608A2
:10091600B5000130A0070030A13D712C2000B501C3
:10092600242D3A174B2DBA16BA174B2D3508031935
:10093600AE2C3508A400A501A41BA5033108250289
:10094600031DA72C300824020318AE2C3508B0006E
:10095600B101B01BB10337083102031DB42C3608B0
:1009660030020318BB2C3008B6023108B73BBD2C49
:10097600B601B701BA1DCB2CE82C2030A4003908EB
:1009860086008701240881000130A4002408B907E5
:10099600FF30B607FF30B73D360A031DC02C370AB5
:1009A6000319E82CC02C2F08860087010108A40033
:1009B600390886008701240881000130A400240834
:1009C600AF070130A4002408B9070130B002003097
:1009D600B13B300A031DD62C310A031DD62CBA1999
:1009E600002DB12B2030A400390886008701240889
:1009F60081000130A4002408B907FF30B607FF3094
:100A0600B73D360A031DF52C370A0319B12BF52C11
:100A16003208860087010108A4002408B8000230C5
:100A2600A4002408B2073830A4002408AF0001301F
:100A3600B0000030B100992CC030BA040030BB04BD
:100A46004B2D20002108A5002008A400A00A0319A8
:100A5600A10A24088400250885000008B800003A89
:100A66000319F92F583A0319962C3B3A03190B2D03
:100A7600073A03194B2D0D3A03194B2D063A031964
:100A8600942C1A3A03191F2D0D3A0319972C162D7B
:100A9600C0303A05A40000303B05A5002408250413
:100AA600031D6C2D320886008701403FB300413F8D
:100AB600B4000230A4002408B207B41F772D033017
:100AC600BA040030BB04B309B409B30A0319B40A63
:100AD600772D320886008701403FB300413FB400BE
:100AE6000230A4002408B2073508031DE92D330897
:100AF6003404031DE92D0130A4002408B507E92DAF
:100B0600B801B80A053038060319F82D3808A400CC
:100B1600A501A435A50D5B30240784008030253D52
:100B26008500003FA600013FA70027083402031DE9
:100B36009E2D26083302031CF82D0130A40024083C
:100B4600B807852DB801B80A043038060319F82D00
:100B56003808A400A501A435A50D39302407840062
:100B66008130253D8500003FA600013FA7002708EC
:100B76003402031DC02D26083302031CF82D013054
:100B8600A4002408B807A72DB801B80A063038060D
:100B96000319F82D3808A400A501A435A50D7C304D
:100BA600240784008030253D8500003FA600013FD4
:100BB600A70027083402031DE22D26083302031C72
:100BC600F82D0130A4002408B807C92D3A08C03909
:100BD600003A0319832D403A0319C72DC03A031969
:100BE600A52D403A0319832DF82D3808803AA40024
:100BF6003508803AA4020318052E3508A4002408F7
:100C0600B800112E3508803AA4003808803AA402AC
:100C16000318112E3808A4002408B5003608370436
:100C26000319232E03303A05A40000303B05A50026
:100C3600240825040319232EFF30B607FF30B73DDD
:100C46003B1F442E3508A400A501A41BA5032508B7
:100C5600803AA6003708803A2602031D342E36084D
:100C660024020318412E20003508A400A501A41B68
:100C7600A5032408B6022508B73B442E2000B6017A
:100C8600B701C4303A05A40008303B05A500403042
:100C96002406083003192506031D572E3608370487
:100CA6000319782EFF30712EC0303A05A4000830A3
:100CB6003B05A50080302406083003192506031DD0
:100CC600782E3708803AA40080302402031D6D2E4A
:100CD60003303602031C752EFE302000B607FF30A7
:100CE600B73D782E2000B601B7013808A400A5014B
:100CF600A41BA5032508803AA6003708803A2602D9
:100D0600031D872E360824020318942E2000380867
:100D1600A400A501A41BA5032408B6022508B73B19
:100D2600972E2000B601B7013A1DE82E03303A058A
:100D3600A40000303B05A500240825040319A52EB0
:100D46002D30CA2E3A1CA92E2030CA2EC0303A05A4
:100D5600A40008303B05A50080302406083003199E
:100D66002506031DD42E3030A400390886008701DD
:100D7600240881000130A4002408B907BA1AC52E38
:100D86007830C62E5830A8000030A9002808A400E4
:100D9600390886008701240881000130A400240850
:100DA600B907360837040319C02F3030A4003908B4
:100DB60086008701240881000130A4002408B907B1
:100DC600FF30B607FF30B73DD42E36083704031D73
:100DD600BA19002F2030A40039088600870124089C
:100DE60081000130A4002408B907FF30B607FF30A0
:100DF600B73D36083704031DED2E03303A05A4002F
:100E060000303B05A5002408250403190C2F2D30BE
:100E16000F2F3A1C192F2030A400390886008701AD
:100E2600240881000130A4002408B907C0303A051F
:100E3600A40008303B05A5004030240608300319FD
:100E46002506031D282F3030B62FC0303A05A400E2
:100E560008303B05A5008030240608300319250616
:100E6600031DC02F3030A4003908860087012408EE
:100E760081000130A4002408B907BA1A442F78303B
:100E8600452F5830AA000030AB002A08B62F0A308A
:100E9600F8000030F9003508A400A501A435A50D19
:100EA6005B30240784008030253D8500003FF0003C
:100EB600013FF1003408F3003308F200A321710862
:100EC600FB007008FA0077217808B02F3508A400D7
:100ED600A501A435A50D3930240784008130253DB0
:100EE6008500003FF000013FF1003408F3003308AD
:100EF600F200A32170080F392000A6002608AE00D4
:100F0600BA1A892FD630AC0080308C2FE730AC006F
:100F16008030AD002D08A5002C08A4002E0824075B
:100F2600840025080318250A85000008B22F350815
:100F3600A400A501A435A50D7C30240784008030CB
:100F4600253D8500003FF000013FF1003408F30025
:100F56003308F200A32170080739303E2000A600AE
:100F66002608B8003808A400390886008701240836
:100F760081000130A4002408B907FF30A40024082A
:100F8600B507350A0319D72F3A08C039003A0319AD
:100F96004A2F403A03199A2FC03A0319692F403A4B
:100FA60003194A2FB52FB52FBA1DB12B3708803A32
:100FB600A40080302402031DE22F01303602031CF8
:100FC600B12B20302000A4003908860087012408B0
:100FD60081000130A4002408B907FF30B607FF30AE
:100FE600B73D360837040319B12BE42F39088600BC
:0A0FF6008701810108002000D729BF
:020000040001F9
:04000E00E4FFFFDF2D
:00000001FF
